:1000000000000120750300005D0300005F03000095
:1000100061030000630300006503000000000000AE
:100020000000000000000000000000006703000066
:1000300069030000000000006B0300006D03000076
:100040006F0300006F030000D11600002D170000A1
:100050006F0300006F030000851500006F030000B0
:100060006F0300006F0300006F0300006F030000C8
:100070006F0300006F0300006F0300006F030000B8
:100080006F0300007D0D00006F0300006F03000090
:100090006F0300006F0300006F0300006F03000098
:1000A0006F0300006F0300006F0300006F03000088
:1000B0006F0300006F03000000000000000000005C
:1000C0006F0300006F0300006F0300006F03000068
:1000D0006F0300006F0300006F03000000000000CA
:1000E0000000000000000000000000000000000010
:1000F0000000000000000000000000000000000000
:1001000000000000000000000000000000000000EF
:1001100000000000000000000000000000000000DF
:1001200000000000000000000000000000000000CF
:1001300000000000000000000000000000000000BF
:1001400000000000000000000000000000000000AF
:10015000000000000000000000000000000000009F
:10016000000000000000000000000000000000008F
:10017000000000000000000000000000000000007F
:10018000000000000000000000000000000000006F
:10019000000000000000000000000000000000005F
:1001A000000000000000000000000000000000004F
:1001B000000000000000000000000000000000003F
:1001C000000000000000000000000000000000002F
:1001D000000000000000000000000000000000001F
:1001E000000000000000000000000000000000000F
:1001F00000000000000000000000000000000000FF
:10020000354936480A1A02D0072291438D463449AF
:1002100034480A1A06D00722914381F30988022242
:1002200082F3148830483149314A00F044F83148AB
:100230003149324A00F03FF831483249324A00F041
:100240003AF832483249334A00F035F832483349F7
:10025000334A00F030F833483349344A00F02BF881
:1002600033483449344A00F026F8344834490022EF
:1002700000F02CF833483449002200F027F83348C6
:100280003349091A082902DB002202604160314A21
:1002900090471F481F49884205D00268043003B4C4
:1002A000904703BCF7E700208646EC46002000217B
:1002B000294A9047FEE7884207D0521A05D00378B2
:1002C00001300B700131013AF9D17047884202D0F8
:1002D00002700130FAE770470000012000E00020C2
:1002E0000000012000000120902D000000000020EF
:1002F00034000020D0030000D0030000D428000008
:10030000902D000000000020000000204029000087
:100310004029000040290000402900004029000039
:10032000402900004029000040290000902D0000D5
:10033000C42D0000340000203400002034000020D0
:100340001D07002020070020200700202007002094
:10035000202700209D03000035240000FEE7FEE773
:10036000FEE7FEE7FEE7FEE7FEE7FEE7FEE7FEE765
:1003700000F002B8FFF7FCBF0F484FF007018843B9
:1003800085460E4880470E48016841F470010160BF
:10039000BFF34F8FBFF36F8FFFF732BF09480A4992
:1003A0000A4A884207D0521A05D0037801300B70F0
:1003B0000131013AF9D1704700000120DD2400002D
:1003C00088ED00E04029000000000020000000202F
:1003D000F0B595B01D46164608460C4600F0C4FF21
:1003E0001A9B0D93CDE9086500252B46082205A927
:1003F00020460A958DF82C500C9500F0D1FF079BF4
:100400000293069B03939DF814308DF8115003F06E
:100410000302012A1DD1BDF81420059DC3F3C203B8
:10042000C2F383168DF81030B20008230EA92046BF
:1004300000F0B6FFC5F3952508AB0093324602AB3A
:100440000EA9284600F07CFB204600F091FF15B075
:10045000F0BD022AF8D1BDF81650C3F3C203C5F3AC
:1004600089158DF810300827082D2E4628BF08263C
:100470003B4632460EA9204600F092FFAD1B08AB6A
:1004800002AA31460EA8374400F0BEFB002DEBD186
:10049000DAE7704707B5044B0093044A4023FFF79F
:1004A00097FF03B05DF804FBF10400003500002065
:1004B00030B50C4D0FCD89B06C460FC495E80F00D8
:1004C00084E80F000623084800930022694600F0E4
:1004D000FFFF08B100F0F8FB044B00221A7009B0CE
:1004E00030BD00BF40290000000000203400002083
:1004F00038B50D480D4C0E4D002323700378EB5C8E
:10050000D2B263B1043001F001FF08B100F0DCFBAE
:10051000084B1A7812B12378002BFBD038BD0C3071
:1005200001F0A2FCF1E700BF0000002075000020F0
:10053000300600203400002008B50848084A037837
:10054000D35C33B1043001F045FEBDE80840FFF74D
:10055000AFBF0C3001F012FCF7E700BF0000002035
:1005600030060020FFF7A4BF08B5FFF7FBFF0448E3
:10057000042100F04FFA034B01225A7108BD00BF5D
:100580001C29000014000020037813F0040216D088
:1005900003F00303012B03D0022B09D00120704785
:1005A0000A6800880232C0F3831002440A60F5E74B
:1005B0000B684288023303EB92130B60EEE71046A0
:1005C000704700002DE9F04FDFF810A10F4685B00D
:1005D0000446861C0020154600F0CCFBDAF8042007
:1005E0003A60DAF8083003F580739B1A0AF21C4768
:1005F0000AF583690AF21448B34219D30020002D8A
:1006000068D004F00F039B0143F0050363F30F0070
:10061000DAF80430DAB2033233444AF82200002018
:10062000CAF8043000F0A8FB012005B0BDE8F08F47
:100630000121384600F0CFFB484600F0E4FB40467D
:1006400000F0E1FBDAF808000090C0B203300AEBDA
:1006500080006946FFF798FF009B30BBDAB20AEBD7
:100660008202D16801919A1C0133DBB20AEB830349
:100670000092D3F80CB001F00303012B22D0022B1F
:1006800015D08346404600F0C1FB10B1009BCAF86C
:1006900008305946384600F09EFBDAF80830DAF8A0
:1006A000042003F580739B1AA6E7D8B2CEE7BDF805
:1006B0000630C3F3891303334FEA1B4B02EB93035A
:1006C0000093DFE7BDF80430C3F383134FEA1B4BFD
:1006D0001344F5E7A40544F0060099E7480100201B
:1006E000064B074810B501221A7000F0F6FD0446CB
:1006F00010B9044800F05EFE204610BD48010020FD
:100700002C2900009429000030B50A4C71B10A4A26
:100710000A49121BD20800239A4201D1002030BDA1
:1007200031F82350854202D00133F5E7034654F8EF
:100730003300F4E7D42800001C290000000000204A
:10074000094B013903EBC000032909D8DFE801F0A8
:100750000A02040604207047007970474079704708
:100760000020704702207047D4280000034BD3E9D3
:100770000130C31A58425841704700BF4801002059
:100780002DE9FF41FFF7F2FF0546002840F0E98020
:10079000754CC4F81804BFF34F8FA3680093DBB205
:1007A000033304EB83006946FFF7EEFE009B18B1AC
:1007B000D4F81824002A5AD0DAB2991C013304EB79
:1007C0008202DBB204EB8303D268DB68029302F09F
:1007D0000303022B0192009154D1BDF80630634807
:1007E000C3F38917502F3E4628BF502606F1080153
:1007F00066F38F13C1F30901ADF8063000F085FDF3
:100800000546002800F0988000F0AEFD0023082285
:1008100001A9284600F0BAFD0099CB43DBB20133B1
:10082000C9B20331B6EB830F4FEA830204EB8101B7
:1008300025D95FFA82F80823A6EB0806284600F0BF
:10084000A5FDF6B208F10803494903F0FC0332465E
:10085000284600F09BFD009B033703EB97070097AA
:10086000D4F81834002B43D1D4F8106453E06268F4
:100870009A4294D8A260284604B0BDE8F0810823CB
:100880003246E5E7012B57D1BDF804303748C3F3B2
:100890008311062928BF062161F38913023101F073
:1008A0000F018900ADF8043000F02FFD0546002847
:1008B00042D000F059FD0023082201A9284600F08B
:1008C00065FD0026BDF80420C2F38312B3009642F2
:1008D00003F10803C4D200994A1CC9B20331009243
:1008E00004EB81010422284600F050FD0136E9E7BF
:1008F000284600F03DFDFFF739FF80F00100C5B24A
:10090000B9E7F3685B7923B1336829461B68304641
:100910009847F3681E68002EF3D1284600F028FDA2
:10092000304600F027FAD4F818340BB9009BA360C6
:10093000002000F021FADEE7D4F8104454B90D4B42
:100940000D480E49C01AC008000440F0020000F033
:100950005DF8D0E7236820469B689847E3681C68E9
:10096000ECE7002587E700BF480100202C290000A4
:1009700054010020D4280000FC2800007D2900003C
:100980002DE9F34704460E46924601A90122184676
:100990009946FFF717FE1B4F10B3019D4FF000085B
:1009A000AA1CC84508EB020123D11748002100F01A
:1009B000EFF980F31000000440EA1440E4006B1CDF
:1009C00004F03804DBB2EDB244F0010407EB83031A
:1009D000033544EA881444EA8624D86047F8254061
:1009E0003B781BB1FFF7CCFE0028FBD102B0BDE87D
:1009F000F087C9B207EB81015AF82830CB6008F1C3
:100A00000108CEE7480100206405002000231A46B3
:100A1000FFF7B6BF30B50F4CD4F8102403460020C2
:100A2000114631B9D96808714AB9C4F810340A605E
:100A300030BDC9680D79854206D00968F1E7D268F2
:100A400014680C601360F3E701300A28E8D14FF016
:100A5000FF30EDE74801002038B5084B0125D3F8F9
:100A600010441D7004B938BDE3685D7123682046E9
:100A70005B689847E3681C68F4E700BF4801002002
:100A800030B5C38885B004460D4633B1144A009290
:100A90001449154A284600F013FA217A05291DD079
:100AA000637A4BB1A088FFF74BFE104B104953F807
:100AB0002020284600F004FA227A0E4BA08853F832
:100AC000222003920021FFF71FFE039A0A490346E2
:100AD000284605B0BDE8304000F0F2B905B030BDA1
:100AE000C0290000A8290000A02900002C2A00002D
:100AF000C5290000502A0000C829000007B5034698
:100B00000846197A052911D05B7A2BB1094A0A499E
:100B1000019000F0D5F901980849019000F0D0F952
:100B2000019803B05DF804EB00F0BFB9002AF8D0DB
:100B3000F2E700BFC0290000C5290000BD29000060
:100B40002DE9F04385B01F460C9D002395F80C90CD
:100B50002B7306460C46904629463846FFF790FF11
:100B6000B8F1060F09D8DFE808F00412181F28337F
:100B700040003146284600F0A3F9002229463846B5
:100B8000FFF7BCFF85F80C9005B0BDE8F083226844
:100B90003146284600F094F9EFE7D4E900233146C6
:100BA000284600F08DF9E8E7A36800933146D4E9C0
:100BB0000023284600F084F9DFE7E3680193A36887
:100BC00000933146D4E90023284600F079F9D4E7B0
:100BD00023690293E3680193A36800933146D4E943
:100BE0000023284600F06CF9C7E763690393236983
:100BF0000293E3680193A36800933146D4E900238C
:100C0000284600F05DF9B8E708292DE9F74F80463E
:100C10000E4617461C463DD800251B7B25732146F2
:100C200010460193FFF72CFFDFF88CA0DFF88CB0A3
:100C3000AE4232D918F805205946204600F040F956
:100C40000135082DF4D11B49DFF874A0DFF874B02A
:100C5000204600F035F94FF000094E4524D918F828
:100C600009507E2D1ED8284601F0D2FD002814BF61
:100C70002A462E225946204600F022F909F10109A0
:100C8000B9F1080FE9D1012221463846FFF736FFB6
:100C9000019B237303B0BDE8F08F5146204600F05E
:100CA0000FF9CDE72E22E5E75146204600F008F97E
:100CB000E4E700BFDC290000D8290000D2290000A9
:100CC000DA290000DE2900001FB50021039001AAE7
:100CD00044F20100CDE9011100F004F805B05DF81F
:100CE00004FB000038B572B6FFF7B6FEFFF748FD0B
:100CF0000028FBD1104B114C114D1249E41AE408A5
:100D0000240444F00100FFF781FED5F8F030DB0742
:100D100000D500BE0C4944F00200FFF777FEBFF398
:100D20004F8FEA68094B02F4E0621343EB60BFF3B4
:100D30004F8F00BFFDE700BFD4280000FC28000053
:100D400000ED00E06F2A00007B2A00000400FA0595
:100D500072B6024A13680133136070470006002020
:100D6000034A1368013B136003B962B6704700BFC2
:100D700000060020FFF7ECBFFFF7F2BF024B034A6B
:100D80001B681068184700BF0C06002004060020EE
:100D900010B5034653E8000F0A4643E8002494F0D8
:100DA000000FF7D110BD10B5034653E8002F42EAFB
:100DB000010043E8000494F0000FF6D110BD10B517
:100DC000034653E8000F00EA010243E8002494F0D0
:100DD000000FF6D110BD10B5034653E8002F02EB0B
:100DE000010043E8000494F0000FF6D110BD10B5E7
:100DF000034653E8002FA2EB010043E8000494F0FF
:100E0000000FF6D110BD0121FFF7CDBF0021FFF784
:100E1000D6BF10B590B1D0E9012301689B1ADBB2AF
:100E20000A60013BDBB2FF2B026802D10020107187
:100E300010BD11684C1C14600B70F2E70E20F7E730
:100E400038B504460020FFF795FF226863681168F3
:100E5000994213D9481E106011F8013CE568218AB7
:100E600001FB0355A36811791B1ADBB2994200D22A
:100E700013710020FFF780FF284638BD0025F8E7F2
:100E800038B5054600200C46FFF774FF2A68136842
:100E9000591C1160E968641A298AB4FBF1F41C70CA
:100EA000BDE838400020FFF767BF826810B50446F0
:100EB0002AB143690168006998470023A36010BD07
:100EC0000EB403B5039921B104AB01AA019300F05C
:100ED00077F802B05DF804EB03B070470A2938B523
:100EE00004460D4602D10D21FFF7F8FFA3682268E2
:100EF000591CA160D554D4E901329A4204D320464A
:100F0000BDE83840FFF7D1BF38BD00002DE9F84FEC
:100F10009846DDE90A43154682460F460A464FF0D9
:100F20000109AA420FD2C14538BFC14613F0010BD7
:100F300001D16CB900240126B8F1010F1BD908F1C9
:100F4000FF386E43F8E709F10109B2FBF5F2E8E773
:100F50009B070ED5B8F1000F0CBF30262026A14507
:100F6000E9D2013C31465046FFF7B8FF002CF6D1DC
:100F7000E0E72026F3E7B7FBF6F39D42E1D9DFF87F
:100F80003C80B7FBF6F3504618F8031006FB1377C6
:100F9000FFF7A4FF3346AB42B6FBF5F6F1D2BBF147
:100FA000000F02D00CB1A14501D3BDE8F88F20217C
:100FB0005046013CFFF792FFF4E700BF922A000081
:100FC0002DE9F74F054617468846002900F03E8177
:100FD00018F8011B49B92B7B002B00F037812846FC
:100FE00003B0BDE8F04FFFF760BF252940F0B780A0
:100FF000002698F800302D2B424608F1010823D036
:10100000302B24D02B2B25D000242A2B02F10101D8
:1010100023D13B681A1D1B683A601C440A461378AA
:101020002E2B26D101324FF0000A104610F8011B7A
:10103000A1F1300CBCF1090F1DD80A2303FB0A13E0
:10104000A3F1300A0246F0E746F00106D1E746F088
:101050000206CEE746F00406CBE711F8013CA3F107
:1010600030000928DBD80A2202FB0434303C0A464F
:10107000CBE74FF0000A12F8011B01F0FB006828D3
:101080009046F8D0782909D86F290CD8632962D006
:1010900022D8252963D0582900F0888098F800309C
:1010A000002B95D197E770390829F7D801A353F899
:1010B00021F000BF271200009D1000009D100000CD
:1010C000BD1100009D1000009B1100009D1000004C
:1010D0009D100000AD110000642901D06929DDD107
:1010E0003A68D2F80090111D89EAE9723960A2EBE2
:1010F000E9724FF0010B092A35DCD34538BFD346DE
:101100002CB1B9F1000F01DB720700D5013CB30728
:1011100002D5BAF1000F03D0F00701D44CBB002474
:10112000B9F1000F2DDAC9F100092D212846FFF78A
:10113000D5FE06F00302022A04D1BAF1000F01D154
:101140001CBB0024CDE9004653460A2249462846E6
:10115000FFF7DCFEA2E73B681A1D19783A602846C3
:10116000FFF7BCFE9AE70A230BF1010BB2FBF3F287
:10117000C1E7A345D4D220212846013CFFF7AEFEAB
:10118000CCE77107D5D52B21D0E7A345DAD23021A2
:101190002846013CFFF7A2FED2E73968CDE90046B8
:1011A0000A1D3A6053460A220968D0E739680A1DC9
:1011B0003A60CDE9004653461022F5E73B681A1D18
:1011C0003A6016F00106D3F8009024D1B9F1000F6F
:1011D00003D0484601F04DFB0646B4421DD809F144
:1011E000FF3919F8011F00293FF458AF2846FFF7CF
:1011F00075FEF6E728460136FFF770FE19F806106F
:101200000029F7D1A642BFF449AF20212846013C6E
:10121000FFF764FEF6E70026F0E720212846013CB0
:10122000FFF75CFED9E73B681A1D3A60302128467B
:101230001C68FFF753FE78212846FFF74FFE002277
:101240000823CDE900322146102280E703B0BDE833
:10125000F08F00BF2DE9F84FB0F806A04579D2F81D
:1012600000B09DF828900AFB05F5043D88460BEB7D
:101270000301A94203F1040488BFA5EB030BB4FBEF
:10128000FAF607460AFB1644C2F800B04EB9AAEBBC
:1012900004055D4528BF5D46BBF1000F04D1BDE8E4
:1012A000F88F3F68013EF1E7043408EB06003C4448
:1012B0002A46B9F1000F0DD02146ABEB050B01F02A
:1012C000AFFADA452E443F6855464FF0000428BF78
:1012D0005D46E1E701462046EFE7FFF79ABDF8B526
:1012E00046790146721E0546002393422D6803D3BA
:1012F0000024A64202D8F8BD0133F6E70F6828465D
:10130000FFF7BEFD01343946F3E72DE9F843068ABD
:10131000CD1C0746FFF794FD043E35440446B5FB5B
:10132000F6F5F0B14FF48073EDB28380C680013DD5
:10133000076081464FF00008A84512D23846FFF7F3
:101340007FFD064648B163790133637108F10108F6
:10135000C9F8000007608146EEE72046FFF7BFFFAF
:1013600034462046BDE8F88301210430FFF733BD41
:1013700010B5012104460430FFF739FDC0B220B991
:101380002046BDE81040FFF7AABF10BD1FB503926D
:101390000022009203AAFFF75DFF05B05DF804FB91
:1013A0001FB503920122009203AAFFF753FF05B075
:1013B0005DF804FB836800225A60C3E904229A6046
:1013C000DA601A60704700007FB503788DF804304A
:1013D0004368029383688DF80C30C36804930369F3
:1013E000064A8DF81430064B01A853F8213052F804
:1013F0002110984707B05DF804FB00BF10060020DD
:101400001C060020F0B50546174615F804CB124A15
:1014100042F82C70114A42F82C30114B0C460FCB7D
:1014200085B06E4686E80F002368009323798DF817
:10143000053063798DF80630A3680293002FA389E5
:10144000084AADF80C3008BF3A4663463146284694
:1014500000F098F905B0F0BD1C0600201006002031
:10146000AC2A0000C91300001FB503788DF80030C6
:101470004368019383688DF80830C368054A039375
:10148000054B684653F8213052F82110984705B0B3
:101490005DF804FB280600202C0600201FB5037809
:1014A0008DF800304368019383688DF80830C36875
:1014B000054A0393054B684653F8213052F8211032
:1014C000984705B05DF804FB280600202C06002094
:1014D000F0B5194B90F800C091F81DE043F82C20AE
:1014E000164B16460A6943F82C20154B03F80CE0FE
:1014F0000C4607460FCC89B06D460FC594E80F0027
:1015000085E80F00CDF810C0BEF1000F09D0002E05
:101510000C4A694608BF3246381D00F099FD09B0F3
:10152000F0BD002E084A694608BF324607F10C009C
:1015300000F070FBF3E700BF2C0600202806002017
:1015400030060020691400009D14000000F1804066
:1015500000F5C040002382B0036003680193019B43
:1015600002B07047800000F1A040D0F8002722F4BC
:101570004032C0F80027D0F8003743EA0141C0F8F4
:10158000001770472DE9F74F00244E4D01944FF49A
:101590008072012102F1804303F5C04390B21B68C1
:1015A000012B06D1D5F804330B4202D0FFF7CEFF52
:1015B0000C430432B2F5907F4FEA4101EAD1414B2E
:1015C000D3F87C31012B0CD14FF4BE70FFF7BEFF76
:1015D0004FF0A04344F00044D3F820250192C3F813
:1015E0002025E3B2D3B1384F00250126344210D074
:1015F000AB0003F1804303F5C043D3F81005D3F8E3
:10160000101557F8253023B1C1F30141C0F3042070
:1016100098470135082D4FEA4606E7D1002C48DAF5
:10162000294D4FF0A048294E4FF00009012716F927
:10163000013B5A1C31D0C3F3C20208326A44DCB207
:1016400012F8042C03F03F0A03F0070307FA03F330
:101650001A4222D00AF5E073504658F82330C3F3FB
:10166000014BBBF1020F0CBF03210221FFF77AFFF0
:1016700007FA0AF3C8F8203505EB0A0393F930306E
:1016800055F823304BB1A109032904D0BBF1020F57
:1016900012D1012901D15046984709F10109B9F148
:1016A000040FC4D1D8F820350193C8F82035002B99
:1016B000B9D103B0BDE8F08FBBF1030FEDD1022922
:1016C000E8E700BF006000403406002084060020E8
:1016D000014B1B68184700BF9006002038B50B4B24
:1016E00098420C4601D0002038BD0020FFF742FB95
:1016F000074B1D7915B901221C601A710020FFF7F4
:101700003BFB002DEFD01120EEE700BF0020004092
:1017100090060020034B984201BF034B00221A6041
:101720001A7170470020004090060020124BD3F839
:10173000182182B0EAB10022C3F81821D3F8183179
:101740000193019B0D4BD97FFF2907D0987F012280
:101750008A404FF0A04148B1C1F80C2500225A77C9
:101760001A72D3E90021064802B01047C1F80825D3
:10177000F4E702B0704700BF003000409806002038
:10178000A00600202DE9F74F90F80480644E0192E6
:101790004FF0240909FB08F906EB090B9A469BF860
:1017A0001C3007460C46002B40F0B58005685D49AB
:1017B0002846FFF793FF002840F0AF80019B46F8D2
:1017C0000930CBF804A094F800E094F80CC04FF076
:1017D000A042012303FA0EF3BCF1010F94BFC2F83B
:1017E0000C35C2F808350EF5E073012142F82310DC
:1017F0006378FF2B1FBF9940C2F80C1503F5E07109
:101800004FF0030918BF42F82190A27808BF4FF0AB
:10181000FF33FF2A1FBF02F5E0714FF0A04A4FF0DF
:10182000040B4AF821B04FF0240101FB086618BFF1
:10183000914686F82020E2783949F27708BF4FF0C8
:10184000FF39FF2A17D094F804A04FF0010B0BFAD0
:1018500002FB4FF0A046BAF1000F4ED0C6F80CB50F
:1018600002F5E0724FF0030B46F822B0242202FB8F
:10187000081282F81EA0C5F808E5C5F80C35A36863
:10188000C5F81095C5F82435637B003B18BF0123CC
:10189000BCF1020F34D0BCF1030F34D0BCF1010F06
:1018A00001D143F00203C5F85435A379C5F8C0351A
:1018B0000723C5F80035019BABB13B68627943F360
:1018C00007355201002DC3F30733D2B21EDB164C8D
:1018D000661986F8002301226D0903F01F0302FA3E
:1018E00003F344F82530242303FB081100234B772E
:1018F00001230B7703B0BDE8F08FC6F808B5AFE75A
:1019000043F00403CFE743F00603CCE7074C03F0B2
:101910000F03E254E7E70820ECE71120EAE700BFF5
:10192000980600202D17000000E100E014ED00E013
:101930002DE9F3410779474E24237B431446F218DF
:101940000D46517F8646002940F08180F35823B12F
:1019500014F0140F04BF0123537795E80F004FF0E4
:10196000240C0CFB076C0CF10C0888E80F009CF8A9
:101970001F20FF2A08D09CF81E10012393404FF02F
:10198000A042C1B1C2F80835296821B101F0604315
:10199000B3F1005F06D1AA6882B102F06043B3F1EF
:1019A000005F0BD0242303FB07660023737710200E
:1019B00002B0BDE8F081C2F80C35E5E7DEF8003092
:1019C0006868C3F84415C3F84805E968C3F83425C6
:1019D0000022C3F83815C3F81821D3F81821019252
:1019E000019A14F0010218BF0122C3F8502514F027
:1019F000020218BF0122C3F8402522075CBF012262
:101A00001A6124227A43B258B2B9D3F81821002AB5
:101A1000FBD0242303FB0766F27FFF2A07D0B07FA9
:101A2000012393404FF0A04218B1C2F80C350020BA
:101A3000BEE7C2F80835BBE714F004004FF04002DF
:101A400002D0C3F80823F2E7C3F80423B0E711205B
:101A5000AEE700BF980600200023435082B04358F1
:101A60000193019B02B070470A4610B54FF48E7186
:101A7000FFF7F2FF136A9168C95C136A01331362BE
:101A8000C0F81C1510BD8B690A4610B54FF484715F
:101A900023B9FFF7E1FFD0F8183510BDFFF7DCFFE1
:101AA000536AD168D0F81805C854536A0133536299
:101AB000F3E700001FB501238DF80030044BCDE99A
:101AC0000110D3E900126846904705B05DF804FBA9
:101AD000BC06002030B54D4DD5F804339A0585B0CD
:101AE00051D5D5F82431002B4DD04FF492712846B2
:101AF000FFF7B2FF4FF40173C5F80833444B93F876
:101B000029200AB901226A60404902228DF800208A
:101B1000D1F88024C1F8802403929A690292DA688D
:101B200001920022C3E906226846D3E900129047D9
:101B30003648D0F81C315BB1354A5169136A994275
:101B40004DD992F82830002B49D11146FFF78CFF70
:101B50002E48D0F84431002B56D04FF4A271FFF735
:101B60007BFF2B4B93F829200AB1012202609A696E
:101B7000002A49D0586AD96800229A6105B0BDE8A8
:101B80003040FFF797BFD5F804335B07D0D5D5F8C1
:101B90000831002BCCD01E4C1C482146FFF773FFA8
:101BA000636AA2699A42C3D1E369E1684BB1A36158
:101BB0002369E3600023606AE3616362FFF77AFFF1
:101BC000B6E794F829300BB901236B600F4B4FF443
:101BD0000172C3F808230023606AA361EEE70B4893
:101BE0004FF48E71FFF738FF5369002BB0D0516965
:101BF0000291002391688DF800300191536168468D
:101C0000D2E900139847A3E705B030BD002000409B
:101C1000BC0600202DE9F843534D90F804802C2396
:101C200003FB0853064693F82A300C469146002BD6
:101C300040F096804D490068FFF750FD07460028A8
:101C400040F0908022683068511C0BD04FF0A041CA
:101C500001239340C1F8083502F5E0734FF0030CFF
:101C600041F823C061684B1C1FBF01F5E0734FF0C2
:101C7000A04C4FF0000E4CF823E0A369C0F82435C7
:101C800094F814C0637DBCF1010F4CEA0303C0F863
:101C90006C35C0F81415C0F80C251DD1A268531C72
:101CA0001FBF02F5E0734FF0A0414FF0000C41F868
:101CB00023C0E368591C0BD04FF0A04C0121994080
:101CC000CCF8081503F5E0714FF0030E4CF821E055
:101CD000C0F80835C0F810252C2202FB08F2AB181A
:101CE000C3F804902369AB50B9F1000F20D04FF432
:101CF0008E71247FFFF7B0FE4FF4A2713068FFF7BA
:101D0000ABFE32681A4BC2F80433130B42F30732AE
:101D10006101002AC9B21EDB1648841884F800133A
:101D20000121520903F01F0301FA03F340F82230A6
:101D300033680422C3F800252C2303FB0853002238
:101D4000C3E9062283F829205A61012283F82A2058
:101D50003846BDE8F883084A03F00F03D154E7E79B
:101D60000827F5E71127F3E7BC060020D51A000085
:101D70008000020000E100E014ED00E0F8B5036827
:101D80000579304C0022C3F800252C2202FB0542C5
:101D90005268A2B12C4AC3F808231A0B43F3073345
:101DA000002B0CDB02F01F015B0901228A4020336B
:101DB000264941F82320BFF34F8FBFF36F8F006890
:101DC000D0F80C65D0F81415D0F80835D0F81025E7
:101DD0004FF0FF37BE42C0F8147518BF06F5E07625
:101DE000C0F80C75C0F80875C0F810751EBF4FF02C
:101DF000A0474FF0020C47F826C04E1C1FBF4FF003
:101E0000A04601F5E071022746F82170511C1FBF62
:101E10004FF0A04102F5E072022641F822605A1C00
:101E20001FBF03F5E0734FF0A042022142F82310D8
:101E3000FFF770FC2C2303FB0544002384F82A30B1
:101E40006360F8BDBC0600208402020000E100E0EF
:101E50000279044B2C2101FB02335869003818BF6A
:101E600001207047BC0600202DE9F84F064690F887
:101E7000048089469246FFF7EBFF044600283CD1D8
:101E8000204F2C2508FB057B4FF48E71CBF814A056
:101E9000CBF80890CBF820008BF828003068FFF7CB
:101EA000DBFD3068012383605946FFF7DDFDDBF879
:101EB00004305D461BBB3068DBF814402B6A9C4243
:101EC00011D83368D3F81C21002AFBD00122DA6034
:101ED00000202C2303FB087700237B61BDE8F88FEB
:101EE00095F828303BB9D0F81C31002BF8D0594672
:101EF000FFF7BAFDE2E70F20EBE71120EEE72046FF
:101F0000ECE700BFBC0600200023435082B04358DA
:101F10000193019B02B070471FB501238DF800307B
:101F2000044BCDE90110D3E900126846904705B093
:101F30005DF804FBE80600207FB5434AD2F824612F
:101F4000002E60D010464FF49271FFF7DDFF0223A0
:101F50008DF80030D2F88034C2F880340393D2F880
:101F60003C350293394BDA6801920022C3E906221C
:101F70006846D3E9001290473348D0F8443173B132
:101F80004FF4A271FFF7C0FF304B9A693AB10022BB
:101F9000C3E90622D968D0F83C05FFF7BDFF2A48FF
:101FA000D0F82031ABB14FF49071FFF7ADFF0123B2
:101FB000C360264B5A6962B1D0F84C1502910022D9
:101FC00099688DF8002001915A616846D3E90012A2
:101FD00090471D48D0F858319BB14FF4AC71FFF7D2
:101FE00093FF1A4B5A6962B1D0F84C150291002246
:101FF00099688DF8002001915A616846D3E9001272
:10200000904704B070BDD2F81031002BB4D04FF41B
:1020100088711046FFF778FF0C4BD2F83C059969A0
:102020008842A9D1DC69D96864B1D2F8005225F0A0
:102030002005C2F800521A699C61DA60DE61FFF780
:102040006BFF99E79C61FAE700200040E80600205A
:102050002DE9F8435A4E90F80480242303FB0863CB
:10206000044693F820300D469146002B40F0A380A3
:1020700054490068FFF732FB0746002840F09D8076
:102080002A682068511C0BD04FF0A04101239340D7
:10209000C1F8083502F5E0734FF0030C41F823C096
:1020A00069684B1C1FBF01F5E0734FF0A04C4FF067
:1020B000000E4CF823E0AB69C0F8243595F814C045
:1020C0006B7DBCF1010F4CEA0303C0F86C35C0F81E
:1020D0000C25C0F814151DD1AA68531C1FBF02F5AA
:1020E000E0734FF0A0414FF0000C41F823C0EB68C3
:1020F000591C0BD04FF0A04C01219940CCF8081589
:1021000003F5E0714FF0030E4CF821E0C0F80835FC
:10211000C0F81025242202FB08F2B318C3F804907B
:102120002B69B350B9F1000F2FD04FF488712A7F7B
:10213000FFF7EAFE20684FF49071FFF7E5FE206894
:102140004FF49271FFF7E0FE20684FF4A271FFF7A1
:10215000DBFE4FF4AC712068FFF7D6FE23681A4906
:10216000C3F80413190B43F307335201002BD2B207
:102170001CDB1648C51885F8002301225B0901F015
:102180001F0102FA01F140F8231023680822C3F866
:102190000025242303FB08660023C6E90633736188
:1021A000012386F820303846BDE8F883084B01F05B
:1021B0000F015A54E9E70827F5E71127F3E700BFB5
:1021C000E8060020391F00001003420000E100E093
:1021D00014ED00E0F8B5444C0579242303FB0543D6
:1021E00002465B680068ABB1404BC0F8083340F36F
:1021F0000733002B4FEA10310CDB01F01F065B099F
:102200000121B14020333A4E46F82310BFF34F8FDF
:10221000BFF36F8FD0F8003223F02003C0F80032F4
:10222000242303FB05439B692BB14FF4A271FFF7F5
:102230006BFE012343604FF4AC71FFF765FE012391
:10224000C360242303FB0543D0F858110029FBD0B9
:10225000996919B1D0F844110029F5D00023C0F8CC
:1022600000351368D3F80C75D3F81465D3F8082536
:10227000D3F810154FF0FF3C6745C3F80CC518BFE5
:1022800007F5E077C3F814C5C3F808C5C3F810C54F
:102290001EBF4FF0A0434FF0020C43F827C0771C3D
:1022A0001FBF4FF0A04306F5E076022743F82670E3
:1022B0004E1C1FBF01F5E0714FF0A043022643F80A
:1022C0002160531C1FBF4FF0A04302F5E0720221B2
:1022D00043F82210FFF71EFA242303FB05440023D2
:1022E00084F820306360F8BDE80600201003420047
:1022F00000E100E00279044B242101FB023358691C
:10230000003818BF01207047E806002001F0604344
:10231000B3F1005F2DE9F0470646884692463BD16F
:1023200090F80490FFF7E6FF0446002836D11D4FD1
:102330003068242505FB09754FF49071C5F814A089
:10234000C5F80880FFF7E0FD4FF4AC713068FFF787
:10235000DBFD33686A69A968C3F84415C3F84825EA
:1023600001229A606A68DAB9D3F82021D3F85801BB
:102370001AB90028F8D00F2007E00028FBD101226D
:10238000DA60D3F85821002AFBD0242303FB097715
:1023900000237B61BDE8F0871020FBE71120F9E7FF
:1023A0002046F7E7E8060020014B01221A7070472B
:1023B0001C0700201FB5094B0FCB6C4684E80F00AB
:1023C000074B0093074A084800232146FFF71AF8F5
:1023D00008B1FEF779FC04B010BD00BF1C2B000053
:1023E00018191A1BA92300002C2B000030B50D4B27
:1023F0000D4D0E4C85B040F04B001870002200933C
:102400000B482A7002236946CDE902430193FFF786
:102410008FFA08B1FEF758FC2B78002BFCD06078BF
:1024200005B030BD140700201C0700200C07002059
:10243000302B000010B54FF480410020FEF750F91A
:1024400008B1FEF741FCFEF78FF80B4CFFF7B2FF27
:102450000A4B0B49E41AE408240444F00304204620
:10246000FEF7D4FA9020FFF7C1FF18B905492046BE
:10247000FEF7CCFAFEE700BFFC280000D4280000DD
:10248000D72A0000EF2A00004FF08053D3F8300124
:10249000421C04BF4FF0704393F8E00F831F584273
:1024A000584170474FF0704393F8E02F062A09D146
:1024B000D3F8E83FC3F30313033B042B02D8024ACB
:1024C000D05C7047002070474B2B0000024AD2F8C6
:1024D0000034002BFBD0704700E0014010B5FFF73F
:1024E000D3FF40B14FF08053944AD3F82433C3F361
:1024F0000423C2F84035FFF7D5FF10B1904B914A45
:102500005A67FFF7C1FF48B14FF080534FF0804248
:10251000D3F84432C3F34233C2F83C35FFF7C2FF6D
:1025200030B1894AD2F8FC3023F08073C2F8FC3015
:10253000FFF7AAFF40B14FF080430022C3F80C21FF
:10254000C3F81021C3F83825FFF7ACFF20B14FF0D6
:1025500080430322C3F8A025FFF7A4FF60B17B4BA3
:102560000522C3F810260122C3F888260022C3F8EA
:1025700018263F22C3F814264FF08053D3F8302199
:10258000511C09BF4FF07043D3F8343193F8E02F5A
:10259000D3F8E83F08BFC3F30313062A4DD1033B2A
:1025A000042B03D86A4AD35C002B46D04FF08052EC
:1025B000684BD2F80414C3F82015D2F80814C3F8F5
:1025C0002415D2F80C14C3F82815D2F81014C3F847
:1025D0002C15D2F81414C3F83015D2F81814C3F817
:1025E0003415D2F81C14C3F84015D2F82014C3F8DF
:1025F0004415D2F82414C3F84815D2F82814C3F8A7
:102600004C15D2F82C14C3F85015D2F83014C3F876
:102610005415D2F83414C3F86015D2F83814C3F83E
:102620006415D2F83C14C3F86815D2F84014C3F806
:102630006C15D2F84424C3F87025FFF725FF48B184
:102640004FF080534FF08042D3F8583203F04F03DD
:10265000C2F8E43EFFF718FF48B14FF08043D3F8CB
:102660000024D20744BF6FF00102C3F800244FF0EA
:102670008053D3F83021062A0ED1D3F83431033BEE
:10268000042B02D8344AD35C33B1344AD2F83C37F5
:1026900043F48063C2F83C372B4AD2F8883043F4C5
:1026A0007003C2F88830BFF34F8FBFF36F8F4FF0C6
:1026B0008053D3F83021062A0FD1D3F83431033BAD
:1026C000042B02D8264AD35C3BB14FF01023D3F839
:1026D00008224FF08043C3F858254FF01023D3F859
:1026E0000022002A03DBD3F80432002B22DA1D4932
:1026F00001234FF01020C1F804351524FFF7E6FE42
:10270000C0F80042FFF7E2FEC0F80442FFF7DEFE29
:102710000023C1F80435FFF7D9FEBFF34F8F0A49F4
:10272000114BCA6802F4E0621343CB60BFF34F8FD2
:1027300000BFFDE70D4B0E4A1A6010BD003001408E
:1027400000C007400DF0ADBA00ED00E000500040C1
:102750003C2B000000C00040412B00000010004056
:10276000462B000000E001400400FA051C00002098
:102770000090D0037F2805D8034A044B105C5B5CB3
:1027800018407047002070475C2B0000DC2B0000D5
:10279000A0F16103192B98BF20387047A0F14103C5
:1027A000192B98BF203070477F299ABF01700120F4
:1027B0006FF02E00704700BF5AB10A787F2A0AD8FE
:1027C00000B102600021501AC3E9001118BF0120B6
:1027D0007047104670476FF02E007047A0F16103FC
:1027E000192B98BF20387047A0F14103192B98BFCF
:1027F000203070477F2805D8034A044B105C5B5C8F
:1028000018407047002070475C2B0000DC2B000054
:10281000024B5B689B6809211B6818472000002059
:10282000844640EA010313F0030F18D18446202A9E
:102830000BD32DE9F007B1E8F807A0E8F807A2F1FB
:102840002002202AF7D2BDE8F007042A07D351F866
:10285000043B40F8043BA2F10402042AF7D2002A08
:1028600005D011F8013B00F8013B013AF9D160466F
:10287000704700F1010110F0030F11D010F8012B87
:10288000002A23D010F0030F0AD010F8012B002AE1
:102890001CD010F0030F03D010F8012B002A15D024
:1028A0002DE970004FF001324FF0803350F8044BA7
:1028B000A4EB020525EA04051D4000D1F6E7A0F1CE
:1028C000040070BC10F8012B002AFBD1A0EB010022
:0428D000704700004D
:1028D400BC2A000000000000C32A00000000000021
:1028E400C72A000000000000CC2A000000000000FD
:1028F400D12A0000000000008E290000000003031C
:10290400642A000000000000882A00000000000083
:08291400A22A000000000000EF
:10291C0060290000000000006C2900001400002059
:10292C007800002040010020480100208000002099
:04293C00180000007F
:10294000FFFFFFFFFFFFFFFFFFFFFFFFFFFFFFFF97
:1029500000000000000000000000D6010601000099
:10296000950400003905000093040000756172743D
:102970005F6C6F675F6261636B656E640042616389
:102980006B656E647320666C757368656400617056
:1029900070000000680500207F000000E8050020AE
:1029A0001B5B313B33316D0025734C6F67732064C3
:1029B000726F70706564202825642925730D0A00E4
:1029C0001B5B306D002573003C25733E2025733A58
:1029D0002000202530327800202020007C00256354
:1029E000001B5B313B33306D001B5B313B33326D81
:1029F000001B5B313B33336D001B5B313B33346D6C
:102A0000001B5B313B33356D001B5B313B33366D57
:102A1000001B5B313B33376D007761726E696E6707
:102A200000696E666F00646562756700C02900000A
:102A3000E1290000A0290000E9290000F129000097
:102A4000F9290000012A0000092A0000112A0000CB
:102A500000000000752A0000192A0000212A000049
:102A6000262A00006170705F627574746F6E004694
:102A70006174616C206572726F7200537973746552
:102A80006D207265736574006170705F74696D6547
:102A900072003031323334353637383941424344AD
:102AA0004546736F72746C6973740000FFFFFFFF1B
:102AB0000006FF0000000040000000004750494FA2
:102AC000544500505253005350494D005541525403
:102AD00000554152544500535049204170706C6973
:102AE000636174696F6E20737461727465640054FD
:102AF00068652057484F5F414D5F492076616C758E
:102B00006520697320636F727265637420666F72EB
:102B1000206C6973336473682E2E2E00FFFFFFFF55
:102B200006FF000000000040000000000000000060
:102B30000030004000000000010000000000010122
:102B40000100000001010000000001010000000080
:102B500043000000504F534958000000202020201F
:102B600020202020206828282828202020202020FD
:102B7000202020202020202020202020481010105D
:102B80001010101010101010101010108484848475
:102B9000848484848484101010101010108181812A
:102BA0008181810101010101010101010101010195
:102BB0000101010101010110101010101082828228
:102BC0008282820202020202020202020202020265
:102BD000020202020202021010101020000703205D
:102BE000041702010857104080000000502B00001D
:102BF000542C0000682D000053756E004D6F6E0060
:102C00005475650057656400546875004672690024
:102C100053617400000000004A616E004665620066
:102C20004D617200417072004D6179004A756E000D
:102C30004A756C0041756700536570004F637400FE
:102C40004E6F76004465630000000000414D005067
:102C50004D0000008C2D0000882D0000882D000004
:102C6000882D0000882D0000882D0000882D000090
:102C7000882D0000882D0000882D0000FFFFFFFF39
:102C8000FFFFFFFFFFFFFFFFFFFF0000C82C00005A
:102C9000F82B0000042D0000182C00004C2C000024
:102CA000AC2C00005C2D0000B82C0000256D2F25F9
:102CB000642F25790000000025612025622025650C
:102CC000202554202559000053756E646179004D0C
:102CD0006F6E64617900547565736461790057653E
:102CE000646E6573646179005468757273646179A8
:102CF0000046726964617900536174757264617928
:102D0000000000004A616E7561727900466562726A
:102D100075617279004D6172636800417072696C0F
:102D2000004D6179004A756E65004A756C79004105
:102D300075677573740053657074656D62657200B4
:102D40004F63746F626572004E6F76656D62657277
:102D500000446563656D62657200000025483A2590
:102D60004D3A255300000000752700009127000010
:102D70009D270000F5270000DD270000E92700005F
:102D8000A9270000B9270000000000002E00000065
:102D90000000000000200040000000000020004073
:102DA0000000000000000000FF0000000090D003C1
:102DB000EC2B0000EC2B0000EC2B0000EC2B0000B7
:042DC000EC2B0000F8
:040000030000037581
:00000001FF
